:020000020000FC
:0200000045C0F9
:0800040066D0189578D018951C
:040078006CD018959B
:10008C000FEF0DBF00E10EBF00E001BB03E002BBB0
:10009C0000EF07BB0FEF08BB01E00093980000EAEC
:1000AC000093990008E900939A000EE000939D00DC
:1000BC00772760E634E603E009BF0AE000936A00A4
:1000CC00789468BBFECFF8940F933F930FB70F93C0
:1000DC0000E008BB34E628D000E208BB34E624D0AC
:1000EC0003E008BF0F910FBF3F910F910895F89453
:1000FC000F933F930FB70F9300919A000F9300E06B
:10010C0000939A0000E008BB34E60ED000E408BB74
:10011C0034E60AD003E008BF0F9100939A000F91C8
:10012C000FBF3F910F9108953F934F935F9350EE04
:10013C004DEE4A95F1F75A95D9F73A95C1F75F917B
:10014C004F913F910895F8940F9310919C0019379B
:10015C0011F4689438C0153571F46F9300E908BB3D
:10016C007395733009F4FFCFDFDFDEDFDDDFDCDF1B
:10017C00DBDF6F9128C03EF5103B19F460E6E89484
:10018C0022C0103819F460E0E8941DC0103A19F43C
:10019C0060E4E89418C0103919F460E2E89413C0D4
:1001AC00183C19F460E9E8940EC0183F61F4009112
:1001BC009A000F9300E000939A0015E508D0E8949C
:1001CC000F9100939A0003E008BF0F9108950091DE
:0C01DC009B0005FFFCCF10939C000895D1
:00000001FF
